:100000000C9462000C948A000C948A000C948A0070
:100010000C948A000C948A000C948A000C948A0038
:100020000C948A000C948A000C948A000C948A0028
:100030000C948A000C948A000C948A000C948A0018
:100040000C9446040C948A000C948A000C948A0048
:100050000C948A000C948A000C948A000C948A00F8
:100060000C948A000C948A000000000024002700F1
:100070002A0000000000250028002B0000000000DE
:1000800023002600290004040404040404040202DA
:100090000202020203030303030301020408102007
:1000A0004080010204081020010204081020000012
:1000B0000008000201000003040700000000000027
:1000C0000000960811241FBECFEFD8E0DEBFCDBFE1
:1000D00011E0A0E0B1E0EEEFF2E102C005900D9278
:1000E000A834B107D9F721E0A8E4B1E001C01D921E
:1000F000A73EB207E1F710E0C2E6D0E004C02197C6
:10010000FE010E946809C136D107C9F70E94900418
:100110000C947D090C94000096E0899FD001112475
:10012000A05ABE4F90967C936E935F9791E0919604
:100130009C939197E091CD01F091CE019091CC01EB
:10014000992339F0309751F0811108C080917C01DA
:100150000994309719F05C968C91FACF0895CF925C
:10016000DF92EF92FF920F931F9396E0899FF00129
:100170001124E05AFE4F11A2278D30A12130310504
:1001800051F178F02230310509F451C023303105A6
:1001900009F452C01F910F91FF90EF90DF90CF9024
:1001A00008956623B9F361E070E00E948C002FB7D8
:1001B000F89480915C0190915D01A0915E01B091F5
:1001C0005F012FBF8093B8019093B901A093BA014A
:1001D000B093BB01DFCF9FB7F894C0905C01D09083
:1001E0005D01E0905E01F0905F019FBF0091B8015A
:1001F0001091B9012091BA013091BB01C01AD10A06
:10020000E20AF30A0091CA011091CB0130E020E02C
:100210000C151D052E053F0550F462E070E01F919E
:100220000F91FF90EF90DF90CF900C948C006111B4
:10023000B1CF63E070E0F3CF70E060E0F0CF8330E7
:1002400081F028F4813099F08230A9F00895873048
:10025000A9F08830C9F08430B1F4809180008F7D9E
:1002600003C0809180008F7780938000089584B5CB
:100270008F7784BD089584B58F7DFBCF8091B000CA
:100280008F778093B00008958091B0008F7DF9CF73
:10029000CF93DF93282F30E0F901E255FF4F84918F
:1002A000F901E656FF4FD491F901EA57FF4FC49187
:1002B000CC23A1F081110E941F01EC2FF0E0EE0F82
:1002C000FF1FE458FF4FA591B491EC91ED2381E01D
:1002D00090E009F480E0DF91CF91089580E090E014
:1002E000FACF1F93CF93DF93282F30E0F901E25527
:1002F000FF4F8491F901E656FF4FD491F901EA5777
:10030000FF4FC491CC23A9F0162F81110E941F0129
:10031000EC2FF0E0EE0FFF1FEE58FF4FA591B491C8
:100320008FB7F894EC91111108C0D095DE23DC93BF
:100330008FBFDF91CF911F910895DE2BF8CFCF9320
:10034000DF9390E0FC01E656FF4F24918A579F4FC0
:10035000FC0184918823C9F090E0880F991FFC016B
:10036000E859FF4FA591B491FC01EE58FF4FC5919C
:10037000D49161110DC09FB7F8948C912095822380
:100380008C938881282328839FBFDF91CF91089584
:10039000623051F49FB7F8943C91822F809583236B
:1003A0008C93E8812E2BEFCF8FB7F894EC912E2B06
:1003B0002C938FBFEACF3FB7F8948091580190916A
:1003C0005901A0915A01B0915B0126B5A89B05C0C7
:1003D0002F3F19F00196A11DB11D3FBFBA2FA92FC4
:1003E000982F8827BC01CD01620F711D811D911DC1
:1003F00042E0660F771F881F991F4A95D1F708952D
:100400008F929F92AF92BF92CF92DF92EF92FF9224
:100410004B015C010E94DB016B017C010E94DB014E
:100420006C197D098E099F09683E7340810591050D
:10043000A8F321E0821A9108A108B10888EEC80E3D
:1004400083E0D81EE11CF11C81149104A104B104C5
:1004500029F7FF90EF90DF90CF90BF90AF909F90E3
:100460008F900895862F642F0C949F01862F642F00
:100470000C947101862F0C944801AF92BF92CF92D9
:10048000DF92EF92FF920F931F93CF93DF936C0154
:100490007B018B01040F151FEB015E01AE18BF0835
:1004A000C017D10759F06991D601ED91FC910190E7
:1004B000F081E02DC6010995892B79F7C501DF91FF
:1004C000CF911F910F91FF90EF90DF90CF90BF9051
:1004D000AF900895089590E080E00895FC010190A8
:1004E0000020E9F73197AF01481B590BBC018FEC95
:1004F00091E00C943D02CF93DF93EC0160E08E819C
:100500000E94710161E08E810E94710160E08E8124
:100510000E9471018BE891E00197F1F7DF91CF9193
:100520000895CF92DF92EF92FF920F931F93CF9394
:10053000DF936C017C0187E0E80EF11CD0E0C0E0A5
:10054000062F10E0B8010C2E02C0759567950A942D
:10055000E2F76170F70181917F010E94710121969C
:10056000C430D10579F7C601DF91CF911F910F916A
:10057000FF90EF90DF90CF900C947B02CF92DF92B0
:10058000EF92FF920F931F93CF93DF93EC01F62E20
:10059000642F8C810E9471018D818F3F19F060E082
:1005A0000E9471010F2D10E08F8584FF25C06E0120
:1005B00087E0C80ED11CF12CE12CB8010E2C02C032
:1005C000759567950A94E2F76170F60181916F0164
:1005D0000E947101FFEFEF1AFF0A88E0E816F104AC
:1005E00061F7CE01DF91CF911F910F91FF90EF90B6
:1005F000DF90CF900C947B02B80184E075956795ED
:100600008A95E1F7CE010E9491026F2DCE01DF9114
:10061000CF911F910F91FF90EF90DF90CF900C94AE
:10062000910240E0682F8FEC91E00C94BE0281E0D3
:100630000E9411038BE39FE10197F1F70895CF9397
:10064000DF93823029F49091DE0198609093DE016F
:100650008093E2011092E30180E48093E40180E161
:100660008093E50180E58093E60161E08091D3010C
:100670000E949F018091D4018F3F19F061E00E9498
:100680009F0161E08091D5010E949F01CFECD1E0F4
:100690009E012F5C31408091DE0184FD0BC084E01F
:1006A00090E021962817390744F461E08E810E947A
:1006B0009F01EECF88E090E0F4CF8BE39DE00197BF
:1006C000F1F760E08091D3010E94710160E08091B8
:1006D000D5010E9471018091D4018F3F19F060E033
:1006E0000E9471018091DE0184FD34C063E08FECD3
:1006F00091E00E949102CBE4D6E4CE010197F1F79C
:1007000063E08FEC91E00E9491022197F1F763E0A2
:100710008FEC91E00E94910283E592E00197F1F75E
:1007200062E08FEC91E00E9491028091DE01806294
:100730000E94110384E08093DF018CE00E9411038A
:100740000E94170382E08093E00186E0DF91CF9161
:100750000C94110380620E9411038BE496E40197CC
:10076000F1F78091DE0180620E94110383E592E03F
:100770000197F1F78091DE0180620E941103D5CFCD
:100780009091E201891710F08FEF890FE82FF0E0C8
:10079000E153FE4F848980680C94110341E00E946C
:1007A000BE0281E090E00895CF92DF92EF92FF9237
:1007B0000F931F93CF93DF93CDB7DEB7A1970FB6FB
:1007C000F894DEBF0FBECDBF6B017C01F7FE3CC0CD
:1007D00041E06DE28FEC91E00E94BE0222273327B8
:1007E000A9012C193D094E095F0919A28E010F5D5F
:1007F0001F4F9AE0C92ED12CE12CF12CCA01B9016E
:10080000A70196010E941C09605DF80162938F01A7
:10081000211531054105510589F790E080E03097B9
:1008200019F0CF010E946E020196A1960FB6F894BE
:10083000DEBF0FBECDBFDF91CF911F910F91FF9013
:10084000EF90DF90CF900895AC019B0119A28E012B
:100850000F5D1F4F8AE0C82ED12CE12CF12CCA016C
:10086000B901A70196010E941C09605DF80162931D
:100870008F01211531054105510589F790E080E090
:10088000309799F2CF010E946E02CFCF1F920F9244
:100890000FB60F9211242F933F938F939F93AF9393
:1008A000BF9380915C0190915D01A0915E01B09138
:1008B0005F013091570123E0230F2D3758F5019642
:1008C000A11DB11D2093570180935C0190935D01A0
:1008D000A0935E01B0935F018091580190915901FE
:1008E000A0915A01B0915B010196A11DB11D8093A9
:1008F000580190935901A0935A01B0935B01BF91A5
:10090000AF919F918F913F912F910F900FBE0F90BC
:100910001F90189526E8230F0296A11DB11DD2CF76
:10092000789484B5826084BD84B5816084BD85B5CA
:10093000826085BD85B5816085BD80916E008160D6
:1009400080936E001092810080918100826080937C
:10095000810080918100816080938100809180007E
:100960008160809380008091B10084608093B100A9
:100970008091B00081608093B00080917A008460A3
:1009800080937A0080917A00826080937A008091CF
:100990007A00816080937A0080917A0080688093E9
:1009A0007A001092C10082E00E941F0380E00E9442
:1009B000C0038EE291E00E946E0268EE73E080E078
:1009C00090E00E94000281E00E94C00389E391E070
:1009D0000E946E0260ED77E080E090E00E940002ED
:1009E0000E94170338E0232E312C412C512C45E076
:1009F000842E912CA12CB12C81E08093CC018FB757
:100A0000F89440915C0150915D0160915E0170919C
:100A10005F018FBF8091BC019091BD01A091BE018B
:100A2000B091BF01481B590B6A0B7B0B8091C80129
:100A30009091C901B0E0A0E084179507A607B70719
:100A400008F072C1C0E08091C601C81760F4E0915F
:100A5000C201F091C301EC0FF11D62E080810E94A0
:100A60009F01CF5FF0CF712C8091C701781608F0FD
:100A700061C0072D10E0E091C401F091C501E00FC5
:100A8000F11F61E080810E949F01E091C401F0911B
:100A9000C501E00FF11F60E080810E94710181E0DB
:100AA00090E0A0E0B0E0072C04C0880F991FAA1FB7
:100AB000BB1F0A94D2F76C017C01E094F094612C86
:100AC0008091C6016816F8F4C62DD0E0E091C2010D
:100AD000F091C301EC0FFD1F80810E944801249614
:100AE000CC0FDD1FC05ADE4F892B41F488819981DC
:100AF0008C299D29998388836394E2CF8881998189
:100B00008E219F21F7CFE091C401F091C501E00F44
:100B1000F11F61E080810E9471018091C401909178
:100B2000C501080F191F60E0D8018C910E949F0138
:100B300073949ACF90E6C92E91E0D92EE6018F8D5D
:100B400098A1892B31F41C8EEFEFFFEFFE8FED8F14
:100B500019A22696F1E0CC39DF0789F710E08091E1
:100B6000C601181708F053C000E0E12EF12CEE0C7E
:100B7000FF1C970128593E4F79012091C7010217A8
:100B800008F043C0D7016D917C91002E02C076958C
:100B900067950A94E2F7129F90011124200F311DEE
:100BA000E0E6F1E080E0458D568D2417350709F425
:100BB00090C28F5F36968A30B1F760FF24C0E0E6BE
:100BC000F1E090E080E0448D411118C0E091C00157
:100BD000F091C101E20FF31F4081B6E0B89FF00130
:100BE000B99FF00D1124E05AFE4F448F368F258FA8
:100BF00010A2178E61E00E94AF0005C001963696E4
:100C00008A30910501F70F5FB8CF1F5FA8CF80E052
:100C1000F60191A19111892FF6E0CF0ED11CCC15D0
:100C2000DD05B1F79FB7F89440915C0150915D01EB
:100C300060915E0170915F019FBF4093BC01509332
:100C4000BD016093BE017093BF01882309F46CC09D
:100C500080918101882309F467C080917F01909180
:100C60008001019709F060C0C0917C01C0935601DA
:100C7000C1115FC0C0905101D0905201E09053016A
:100C8000F0905401809155018823C9F08091500162
:100C90008B3209F0DCC180914C0190914D01A09103
:100CA0004E01B0914F018C0D9D1DAE1DBF1D809357
:100CB000480190934901A0934A01B0934B0180E011
:100CC0000E94C003C701B6010E94D40341E06091B5
:100CD00050018FEC91E00E94BE0260914C01709136
:100CE0004D0180914E0190914F010E94D40380915B
:100CF0005501882389F084E491E00E946E0281E02E
:100D00000E94C003609148017091490180914A019D
:100D100090914B010E94D40380E090E0892B09F46C
:100D20006BCE0E94000068CE1092CC01109256014A
:100D3000A1CF0E941703CA3209F04AC010924C0199
:100D400010924D0110924E0110924F0110925101DC
:100D500010925201109253011092540110924801C6
:100D60001092490110924A0110924B0110925501C4
:100D70008FEB8C0F843008F07DCF809148019091EB
:100D80004901A0914A01B0914B0180935101909388
:100D90005201A0935301B093540110924801109254
:100DA000490110924A0110924B018BE2C13439F093
:100DB0008DE2C23421F08AE2C33409F08FE28093DD
:100DC000500164E670E080E090E00E94000252CFA3
:100DD000C13359F5209148013091490140914A01B0
:100DE00050914B01211531054105510569F421E070
:100DF00030E040E050E020934801309349014093B7
:100E00004A0150934B01B4CFAAE0B0E00E945D09C3
:100E10006F5F7F4F8F4F9F4F6093480170934901E1
:100E200080934A0190934B01A3CFC433D9F420910E
:100E300048013091490140914A0150914B0184E0B1
:100E400090E0A0E0B0E0211531054105510509F41D
:100E5000E3C0AAE0B0E00E945D096C5F7F4F8F4F56
:100E60009F4FDACFC73309F036C120914801309146
:100E7000490140914A0150914B012115310541052D
:100E8000510529F427E030E040E050E0B4CFAAE07B
:100E9000B0E00E945D09695F7F4F8F4F9F4FBCCFCD
:100EA000209148013091490140914A0150914B01F4
:100EB000211531054105510509F45ACFAAE0B0E0EA
:100EC0000E945D09A9CF20914801309149014091CC
:100ED0004A0150914B0182E090E0A0E0B0E0211582
:100EE00031054105510509F497C0AAE0B0E00E9420
:100EF0005D096E5F7F4F8F4F9F4F8ECF20914801CE
:100F00003091490140914A0150914B012115310521
:100F10004105510549F48092480190924901A092FF
:100F20004A01B0924B0124CFAAE0B0E00E945D09D3
:100F30006B5F7F4F8F4F9F4F6FCF20914801309154
:100F4000490140914A0150914B012115310541055C
:100F5000510549F4209248013092490140924A01DA
:100F600050924B0105CFAAE0B0E00E945D09685F96
:100F70007F4F8F4F9F4F50CF8091480190914901F3
:100F8000A0914A01B0914B0180934C0190934D0187
:100F9000A0934E01B0934F0181E080935501E8CEBC
:100FA000209148013091490140914A0150914B01F3
:100FB000211531054105510569F423E030E040E099
:100FC00050E0209348013093490140934A015093E7
:100FD0004B0150CEAAE0B0E00E945D096D5F7F4FEB
:100FE0008F4F9F4F609348017093490180934A014E
:100FF00090934B013FCE209148013091490140919F
:101000004A0150914B01211531054105510569F403
:1010100086E090E0A0E0B0E0809348019093490121
:10102000A0934A01B0934B01A3CEAAE0B0E00E9486
:101030005D096A5F7F4F8F4F9F4FEECEAAE0B0E011
:101040000E945D09675F7F4F8F4F9F4FE5CE8D32C6
:1010500089F480914C0190914D01A0914E01B09185
:101060004F01A7019601281B390B4A0B5B0BDA01D4
:10107000C9011DCE8A32A9F420914C0130914D0155
:1010800040914E0150914F01C701B6010E940C09D9
:10109000609348017093490180934A0190934B01FA
:1010A0000ECE8F3209F00BCE20914C0130914D01C4
:1010B00040914E0150914F01C701B6010E943E0977
:1010C000209348013093490140934A0150934B01CA
:1010D000F6CD617090CDC03309F4E2CEC23309F48D
:1010E000F2CEC53309F40ACFC83309F426CFC33290
:1010F00009F442CFC33309F453CFC63309F47BCF8D
:10110000C93309F035CE2091480130914901409111
:101110004A0150914B01211531054105510509F056
:101120008DCF29E030E040E050E065CE10926201C2
:1011300010926601109265011092670188E291E0B9
:101140009093610180936001ECE7F1E010821482DA
:1011500013821582369681E0E83BF807B9F784E000
:1011600091E09093C3018093C20180E091E090935D
:10117000C5018093C40184E08093C6018093C701B8
:1011800088E091E09093C1018093C0018AE090E0F3
:101190009093C9018093C80184EF91E09093CB01B3
:1011A0008093CA011092CE011092CD011092BC0121
:1011B0001092BD011092BE011092BF011092CC019D
:1011C0001092D2011092D1018CE191E09093D00164
:1011D0008093CF0188E08093D3018FEF8093D40177
:1011E00089E08093D5018AE08093D6018BE08093DB
:1011F000D7018CE08093D8018DE08093D9011092C3
:10120000DA011092DB011092DC011092DD011092E4
:10121000DE0181E00C941F03DB018F939F930E94FA
:101220005D09BF91AF91A29F800D911DA39F900D6D
:10123000B29F900D11240895A1E21A2EAA1BBB1B88
:10124000FD010DC0AA1FBB1FEE1FFF1FA217B30792
:10125000E407F50720F0A21BB30BE40BF50B661FA8
:10126000771F881F991F1A9469F76095709580956C
:1012700090959B01AC01BD01CF010895052E97FB10
:101280001EF400940E94550957FD07D00E941C09C6
:1012900007FC03D04EF40C945509509540953095B9
:1012A00021953F4F4F4F5F4F0895909580957095D2
:1012B00061957F4F8F4F9F4F08950E946E09A59FA4
:1012C000900DB49F900DA49F800D911D1124089541
:1012D000EE0FFF1F0590F491E02D0994A29FB0013D
:1012E000B39FC001A39F700D811D1124911DB29F5A
:0E12F000700D811D1124911D0895F894FFCFFB
:1012FE0004050607000102033738394434353643F6
:10130E00313233422A30234100000000CE033D0229
:10131E006B026A0200000000320236023A0243619A
:10132E006C63756C61746F72004C6F6164696E678B
:08133E002E2E2E00203D2000A0
:00000001FF
