:020000040000FA
:100000000C9462000C948A000C948A000C948A0070
:100010000C948A000C948A000C948A000C948A0038
:100020000C948A000C948A000C948A000C948A0028
:100030000C948A000C948A000C948A000C948A0018
:100040000C9446040C948A000C948A000C948A0048
:100050000C948A000C948A000C948A000C948A00F8
:100060000C948A000C948A000000000024002700F1
:100070002A0000000000250028002B0000000000DE
:1000800023002600290004040404040404040202DA
:100090000202020203030303030301020408102007
:1000A0004080010204081020010204081020000012
:1000B0000008000201000003040700000000000027
:1000C0000000900811241FBECFEFD8E0DEBFCDBFE7
:1000D00011E0A0E0B1E0E2EFF2E102C005900D9284
:1000E000A434B107D9F721E0A4E4B1E001C01D9226
:1000F000A33EB207E1F710E0C2E6D0E004C02197CA
:10010000FE010E946209C136D107C9F70E9490041E
:100110000C9477090C94000096E0899FD00111247B
:10012000A45ABE4F90967C936E935F9791E0919600
:100130009C939197E091C901F091CA019091C801F7
:10014000992339F0309751F0811108C080917801DE
:100150000994309719F05C968C91FACF0895CF925C
:10016000DF92EF92FF920F931F9396E0899FF00129
:100170001124E45AFE4F11A2278D30A12130310500
:1001800051F178F02230310509F451C023303105A6
:1001900009F452C01F910F91FF90EF90DF90CF9024
:1001A00008956623B9F361E070E00E948C002FB7D8
:1001B000F8948091580190915901A0915A01B09101
:1001C0005B012FBF8093B4019093B501A093B6015A
:1001D000B093B701DFCF9FB7F894C0905801D0908B
:1001E0005901E0905A01F0905B019FBF0091B4016A
:1001F0001091B5012091B6013091B701C01AD10A12
:10020000E20AF30A0091C6011091C70130E020E034
:100210000C151D052E053F0550F462E070E01F919E
:100220000F91FF90EF90DF90CF900C948C006111B4
:10023000B1CF63E070E0F3CF70E060E0F0CF8330E7
:1002400081F028F4813099F08230A9F00895873048
:10025000A9F08830C9F08430B1F4809180008F7D9E
:1002600003C0809180008F7780938000089584B5CB
:100270008F7784BD089584B58F7DFBCF8091B000CA
:100280008F778093B00008958091B0008F7DF9CF73
:10029000CF93DF93282F30E0F901E255FF4F84918F
:1002A000F901E656FF4FD491F901EA57FF4FC49187
:1002B000CC23A1F081110E941F01EC2FF0E0EE0F82
:1002C000FF1FE458FF4FA591B491EC91ED2381E01D
:1002D00090E009F480E0DF91CF91089580E090E014
:1002E000FACF1F93CF93DF93282F30E0F901E25527
:1002F000FF4F8491F901E656FF4FD491F901EA5777
:10030000FF4FC491CC23A9F0162F81110E941F0129
:10031000EC2FF0E0EE0FFF1FEE58FF4FA591B491C8
:100320008FB7F894EC91111108C0D095DE23DC93BF
:100330008FBFDF91CF911F910895DE2BF8CFCF9320
:10034000DF9390E0FC01E656FF4F24918A579F4FC0
:10035000FC0184918823C9F090E0880F991FFC016B
:10036000E859FF4FA591B491FC01EE58FF4FC5919C
:10037000D49161110DC09FB7F8948C912095822380
:100380008C938881282328839FBFDF91CF91089584
:10039000623051F49FB7F8943C91822F809583236B
:1003A0008C93E8812E2BEFCF8FB7F894EC912E2B06
:1003B0002C938FBFEACF3FB7F8948091540190916E
:1003C0005501A0915601B091570126B5A89B05C0D3
:1003D0002F3F19F00196A11DB11D3FBFBA2FA92FC4
:1003E000982F8827BC01CD01620F711D811D911DC1
:1003F00042E0660F771F881F991F4A95D1F708952D
:100400008F929F92AF92BF92CF92DF92EF92FF9224
:100410004B015C010E94DB016B017C010E94DB014E
:100420006C197D098E099F09683E7340810591050D
:10043000A8F321E0821A9108A108B10888EEC80E3D
:1004400083E0D81EE11CF11C81149104A104B104C5
:1004500029F7FF90EF90DF90CF90BF90AF909F90E3
:100460008F900895862F642F0C949F01862F642F00
:100470000C947101862F0C944801AF92BF92CF92D9
:10048000DF92EF92FF920F931F93CF93DF936C0154
:100490007B018B01040F151FEB015E01AE18BF0835
:1004A000C017D10759F06991D601ED91FC910190E7
:1004B000F081E02DC6010995892B79F7C501DF91FF
:1004C000CF911F910F91FF90EF90DF90CF90BF9051
:1004D000AF900895089590E080E00895FC010190A8
:1004E0000020E9F73197AF01481B590BBC018BEC99
:1004F00091E00C943D02CF93DF93EC0160E08E819C
:100500000E94710161E08E810E94710160E08E8124
:100510000E9471018BE891E00197F1F7DF91CF9193
:100520000895CF92DF92EF92FF920F931F93CF9394
:10053000DF936C017C0187E0E80EF11CD0E0C0E0A5
:10054000062F10E0B8010C2E02C0759567950A942D
:10055000E2F76170F70181917F010E94710121969C
:10056000C430D10579F7C601DF91CF911F910F916A
:10057000FF90EF90DF90CF900C947B02CF92DF92B0
:10058000EF92FF920F931F93CF93DF93EC01F62E20
:10059000642F8C810E9471018D818F3F19F060E082
:1005A0000E9471010F2D10E08F8584FF25C06E0120
:1005B00087E0C80ED11CF12CE12CB8010E2C02C032
:1005C000759567950A94E2F76170F60181916F0164
:1005D0000E947101FFEFEF1AFF0A88E0E816F104AC
:1005E00061F7CE01DF91CF911F910F91FF90EF90B6
:1005F000DF90CF900C947B02B80184E075956795ED
:100600008A95E1F7CE010E9491026F2DCE01DF9114
:10061000CF911F910F91FF90EF90DF90CF900C94AE
:10062000910240E0682F8BEC91E00C94BE0281E0D7
:100630000E9411038BE39FE10197F1F70895CF9397
:10064000DF93823029F49091DA0198609093DA0177
:100650008093DE011092DF0180E48093E00180E16D
:100660008093E10180E58093E20161E08091CF0118
:100670000E949F018091D0018F3F19F061E00E949C
:100680009F0161E08091D1010E949F01CBECD1E0FC
:100690009E012B5C31408091DA0184FD0BC084E027
:1006A00090E021962817390744F461E08E810E947A
:1006B0009F01EECF88E090E0F4CF8BE39DE00197BF
:1006C000F1F760E08091CF010E94710160E08091BC
:1006D000D1010E9471018091D0018F3F19F060E03B
:1006E0000E9471018091DA0184FD34C063E08BECDB
:1006F00091E00E949102CBE4D6E4CE010197F1F79C
:1007000063E08BEC91E00E9491022197F1F763E0A6
:100710008BEC91E00E94910283E592E00197F1F762
:1007200062E08BEC91E00E9491028091DA0180629C
:100730000E94110384E08093DB018CE00E9411038E
:100740000E94170382E08093DC0186E0DF91CF9165
:100750000C94110380620E9411038BE496E40197CC
:10076000F1F78091DA0180620E94110383E592E043
:100770000197F1F78091DA0180620E941103D5CFD1
:100780009091DE01891710F08FEF890FE82FF0E0CC
:10079000E553FE4F848980680C94110341E00E9468
:1007A000BE0281E090E00895CF92DF92EF92FF9237
:1007B0000F931F93CF93DF93CDB7DEB7A1970FB6FB
:1007C000F894DEBF0FBECDBF6B017C01F7FE3CC0CD
:1007D00041E06DE28BEC91E00E94BE0222273327BC
:1007E000A9012C193D094E095F0919A28E010F5D5F
:1007F0001F4F9AE0C92ED12CE12CF12CCA01B9016E
:10080000A70196010E941609605DF80162938F01AD
:10081000211531054105510589F790E080E03097B9
:1008200019F0CF010E946E020196A1960FB6F894BE
:10083000DEBF0FBECDBFDF91CF911F910F91FF9013
:10084000EF90DF90CF900895AC019B0119A28E012B
:100850000F5D1F4F8AE0C82ED12CE12CF12CCA016C
:10086000B901A70196010E941609605DF801629323
:100870008F01211531054105510589F790E080E090
:10088000309799F2CF010E946E02CFCF1F920F9244
:100890000FB60F9211242F933F938F939F93AF9393
:1008A000BF938091580190915901A0915A01B09144
:1008B0005B013091530123E0230F2D3758F501964A
:1008C000A11DB11D209353018093580190935901AC
:1008D000A0935A01B0935B0180915401909155010E
:1008E000A0915601B09157010196A11DB11D8093B1
:1008F000540190935501A0935601B0935701BF91B5
:10090000AF919F918F913F912F910F900FBE0F90BC
:100910001F90189526E8230F0296A11DB11DD2CF76
:10092000789484B5826084BD84B5816084BD85B5CA
:10093000826085BD85B5816085BD80916E008160D6
:1009400080936E001092810080918100826080937C
:10095000810080918100816080938100809180007E
:100960008160809380008091B10084608093B100A9
:100970008091B00081608093B00080917A008460A3
:1009800080937A0080917A00826080937A008091CF
:100990007A00816080937A0080917A0080688093E9
:1009A0007A001092C10082E00E941F0380E00E9442
:1009B000C0038EE291E00E946E0281E00E94C003BB
:1009C00086E391E00E946E0260ED77E080E090E0C7
:1009D0000E9400020E94170338E0232E312C412C84
:1009E000512C45E0842E912CA12CB12C81E08093D8
:1009F000C8018FB7F8944091580150915901609106
:100A00005A0170915B018FBF8091B8019091B9013B
:100A1000A091BA01B091BB01481B590B6A0B7B0B2B
:100A20008091C4019091C501B0E0A0E084179507C2
:100A3000A607B70708F072C1C0E08091C201C817CD
:100A400060F4E091BE01F091BF01EC0FF11D62E096
:100A500080810E949F01CF5FF0CF712C8091C301F4
:100A6000781608F061C0072D10E0E091C001F09108
:100A7000C101E00FF11F61E080810E949F01E091C0
:100A8000C001F091C101E00FF11F60E080810E9480
:100A9000710181E090E0A0E0B0E0072C04C0880F75
:100AA000991FAA1FBB1F0A94D2F76C017C01E09426
:100AB000F094612C8091C2016816F8F4C62DD0E044
:100AC000E091BE01F091BF01EC0FFD1F80810E94FB
:100AD00048012496CC0FDD1FC45ADE4F892B41F408
:100AE000888199818C299D29998388836394E2CF99
:100AF000888199818E219F21F7CFE091C001F091EB
:100B0000C101E00FF11F61E080810E9471018091BD
:100B1000C0019091C101080F191F60E0D8018C91AC
:100B20000E949F0173949ACF9CE5C92E91E0D92E23
:100B3000E6018F8D98A1892B31F41C8EEFEFFFEF2A
:100B4000FE8FED8F19A22696F1E0C839DF0789F7ED
:100B500010E08091C201181708F053C000E0E12EA8
:100B6000F12CEE0CFF1C97012C593E4F790120917E
:100B7000C301021708F043C0D7016D917C91002E8C
:100B800002C0769567950A94E2F7129F90011124AE
:100B9000200F311DECE5F1E080E0458D568D2417E6
:100BA000350709F490C28F5F36968A30B1F760FF3F
:100BB00024C0ECE5F1E090E080E0448D411118C0E4
:100BC000E091BC01F091BD01E20FF31F4081B6E05E
:100BD000B89FF001B99FF00D1124E45AFE4F448FE5
:100BE000368F258F10A2178E61E00E94AF0005C0DE
:100BF000019636968A30910501F70F5FB8CF1F5FD7
:100C0000A8CF80E0F60191A19111892FF6E0CF0ED7
:100C1000D11CCC15DD05B1F79FB7F8944091580170
:100C20005091590160915A0170915B019FBF4093AF
:100C3000B8015093B9016093BA017093BB01882346
:100C400009F46CC080917D01882309F467C080910C
:100C50007B0190917C01019709F060C0C0917801FF
:100C6000C0935201C1115FC0C0904D01D0904E01A0
:100C7000E0904F01F0905001809151018823C9F01C
:100C800080914C018B3209F0DCC180914801909138
:100C90004901A0914A01B0914B018C0D9D1DAE1DE3
:100CA000BF1D8093440190934501A0934601B093EA
:100CB000470180E00E94C003C701B6010E94D4032F
:100CC00041E060914C018BEC91E00E94BE0260918A
:100CD00048017091490180914A0190914B010E9415
:100CE000D40380915101882389F08FE391E00E9421
:100CF0006E0281E00E94C003609144017091450141
:100D000080914601909147010E94D40380E090E0D9
:100D1000892B09F46BCE0E94000068CE1092C801A6
:100D200010925201A1CF0E941703CA3209F04AC0A3
:100D3000109248011092490110924A0110924B0101
:100D400010924D0110924E0110924F0110925001DD
:100D500010924401109245011092460110924701F1
:100D6000109251018FEB8C0F843008F07DCF809171
:100D7000440190914501A0914601B09147018093B3
:100D80004D0190934E01A0934F01B09350011092EA
:100D900044011092450110924601109247018BE2E6
:100DA000C13439F08DE2C23421F08AE2C33409F053
:100DB0008FE280934C0164E670E080E090E00E9456
:100DC000000252CFC13359F52091440130914501C1
:100DD00040914601509147012115310541055105CA
:100DE00069F421E030E040E050E02093440130938A
:100DF00045014093460150934701B4CFAAE0B0E0CB
:100E00000E9457096F5F7F4F8F4F9F4F6093440140
:100E1000709345018093460190934701A3CFC4335B
:100E2000D9F42091440130914501409146015091FF
:100E3000470184E090E0A0E0B0E0211531054105D4
:100E4000510509F4E3C0AAE0B0E00E9457096C5FC5
:100E50007F4F8F4F9F4FDACFC73309F036C12091B4
:100E600044013091450140914601509147012115BF
:100E700031054105510529F427E030E040E050E01C
:100E8000B4CFAAE0B0E00E945709695F7F4F8F4F4F
:100E90009F4FBCCF209144013091450140914601C4
:100EA00050914701211531054105510509F45ACFEB
:100EB000AAE0B0E00E945709A9CF209144013091E7
:100EC0004501409146015091470182E090E0A0E049
:100ED000B0E0211531054105510509F497C0AAE09C
:100EE000B0E00E9457096E5F7F4F8F4F9F4F8ECFAC
:100EF00020914401309145014091460150914701B4
:100F0000211531054105510549F480924401909223
:100F10004501A0924601B092470124CFAAE0B0E07B
:100F20000E9457096B5F7F4F8F4F9F4F6FCF20916C
:100F300044013091450140914601509147012115EE
:100F400031054105510549F4209244013092450193
:100F5000409246015092470105CFAAE0B0E00E94BE
:100F60005709685F7F4F8F4F9F4F50CF809144014B
:100F700090914501A0914601B091470180934801AD
:100F800090934901A0934A01B0934B0181E0809373
:100F90005101E8CE20914401309145014091460134
:100FA00050914701211531054105510569F423E0B0
:100FB00030E040E050E020934401309345014093FD
:100FC00046015093470150CEAAE0B0E00E94570975
:100FD0006D5F7F4F8F4F9F4F60934401709345012A
:100FE00080934601909347013FCE20914401309178
:100FF00045014091460150914701211531054105B8
:10100000510569F486E090E0A0E0B0E080934401EF
:1010100090934501A0934601B0934701A3CEAAE067
:10102000B0E00E9457096A5F7F4F8F4F9F4FEECE0F
:10103000AAE0B0E00E945709675F7F4F8F4F9F4F34
:10104000E5CE8D3289F48091480190914901A091BB
:101050004A01B0914B01A7019601281B390B4A0B9D
:101060005B0BDA01C9011DCE8A32A9F42091480137
:101070003091490140914A0150914B01C701B6019D
:101080000E940609609344017093450180934601D4
:10109000909347010ECE8F3209F00BCE209148017C
:1010A0003091490140914A0150914B01C701B6016D
:1010B0000E94380920934401309345014093460132
:1010C00050934701F6CD617090CDC03309F4E2CE64
:1010D000C23309F4F2CEC53309F40ACFC83309F498
:1010E00026CFC33209F442CFC33309F453CFC633FA
:1010F00009F47BCFC93309F035CE209144013091FA
:1011000045014091460150914701211531054105A6
:10111000510509F08DCF29E030E040E050E065CE88
:1011200010925E01109262011092610110926301AF
:1011300088E291E090935D0180935C01E8E7F1E043
:101140001082148213821582369681E0E43BF80700
:10115000B9F784E091E09093BF018093BE0180E0F5
:1011600091E09093C1018093C00184E08093C2011B
:101170008093C30188E091E09093BD018093BC010E
:101180008AE090E09093C5018093C40184EF91E0E0
:101190009093C7018093C6011092CA011092C901B1
:1011A0001092B8011092B9011092BA011092BB01CD
:1011B0001092C8011092CE011092CD018CE191E005
:1011C0009093CC018093CB0188E08093CF018FEF87
:1011D0008093D00189E08093D1018AE08093D2018D
:1011E0008BE08093D3018CE08093D4018DE08093D9
:1011F000D5011092D6011092D7011092D801109209
:10120000D9011092DA0181E00C941F03DB018F9366
:101210009F930E945709BF91AF91A29F800D911D8E
:10122000A39F900DB29F900D11240895A1E21A2E54
:10123000AA1BBB1BFD010DC0AA1FBB1FEE1FFF1F7A
:10124000A217B307E407F50720F0A21BB30BE40BCA
:10125000F50B661F771F881F991F1A9469F7609511
:101260007095809590959B01AC01BD01CF010895CB
:10127000052E97FB1EF400940E944F0957FD07D0DE
:101280000E94160907FC03D04EF40C944F095095A8
:101290004095309521953F4F4F4F5F4F0895909562
:1012A0008095709561957F4F8F4F9F4F08950E9455
:1012B0006809A59F900DB49F900DA49F800D911D6E
:1012C00011240895EE0FFF1F0590F491E02D09946D
:1012D000A29FB001B39FC001A39F700D811D112477
:1012E000911DB29F700D811D1124911D0895F894D8
:1012F000FFCF0405060700010203373839443435AF
:101300003643313233422A30234100000000CE03FD
:101310003D026B026A0200000000320236023A020D
:1013200057656C636F6D6500476861766964656CCD
:0613300000203D2000003A
:107E0000112484B714BE81FFF0D085E080938100F7
:107E100082E08093C00088E18093C10086E0809377
:107E2000C20080E18093C4008EE0C9D0259A86E02C
:107E300020E33CEF91E0309385002093840096BBD3
:107E4000B09BFECF1D9AA8958150A9F7CC24DD24C4
:107E500088248394B5E0AB2EA1E19A2EF3E0BF2EE7
:107E6000A2D0813461F49FD0082FAFD0023811F036
:107E7000013811F484E001C083E08DD089C08234E0
:107E800011F484E103C0853419F485E0A6D080C0E4
:107E9000853579F488D0E82EFF2485D0082F10E0AE
:107EA000102F00270E291F29000F111F8ED06801E7
:107EB0006FC0863521F484E090D080E0DECF843638
:107EC00009F040C070D06FD0082F6DD080E0C81688
:107ED00080E7D80618F4F601B7BEE895C0E0D1E017
:107EE00062D089930C17E1F7F0E0CF16F0E7DF06D8
:107EF00018F0F601B7BEE89568D007B600FCFDCFD4
:107F0000A601A0E0B1E02C9130E011968C91119780
:107F100090E0982F8827822B932B1296FA010C0160
:107F200087BEE89511244E5F5F4FF1E0A038BF0790
:107F300051F7F601A7BEE89507B600FCFDCF97BE46
:107F4000E89526C08437B1F42ED02DD0F82E2BD052
:107F50003CD0F601EF2C8F010F5F1F4F84911BD097
:107F6000EA94F801C1F70894C11CD11CFA94CF0C13
:107F7000D11C0EC0853739F428D08EE10CD085E9AC
:107F80000AD08FE07ACF813511F488E018D01DD067
:107F900080E101D065CF982F8091C00085FFFCCF94
:107FA0009093C60008958091C00087FFFCCF809118
:107FB000C00084FD01C0A8958091C6000895E0E648
:107FC000F0E098E1908380830895EDDF803219F02E
:107FD00088E0F5DFFFCF84E1DECF1F93182FE3DFCA
:107FE0001150E9F7F2DF1F91089580E0E8DFEE27F6
:047FF000FF270994CA
:027FFE00040479
:00000001FF
